{
  "_format": "hh-sol-artifact-1",
  "contractName": "CasinoRoletaVRF",
  "sourceName": "contracts/CasinoRoletaVrf.sol",
  "abi": [
    {
      "inputs": [
        {
          "internalType": "uint64",
          "name": "subscriptionId",
          "type": "uint64"
        },
        {
          "internalType": "address",
          "name": "vrfCoordinator",
          "type": "address"
        },
        {
          "internalType": "bytes32",
          "name": "keyHash_",
          "type": "bytes32"
        }
      ],
      "stateMutability": "nonpayable",
      "type": "constructor"
    },
    {
      "inputs": [
        {
          "internalType": "address",
          "name": "have",
          "type": "address"
        },
        {
          "internalType": "address",
          "name": "want",
          "type": "address"
        }
      ],
      "name": "OnlyCoordinatorCanFulfill",
      "type": "error"
    },
    {
      "anonymous": false,
      "inputs": [
        {
          "indexed": true,
          "internalType": "address",
          "name": "player",
          "type": "address"
        },
        {
          "indexed": false,
          "internalType": "uint256",
          "name": "amount",
          "type": "uint256"
        },
        {
          "indexed": false,
          "internalType": "uint256",
          "name": "requestId",
          "type": "uint256"
        }
      ],
      "name": "BetPlaced",
      "type": "event"
    },
    {
      "anonymous": false,
      "inputs": [
        {
          "indexed": true,
          "internalType": "address",
          "name": "player",
          "type": "address"
        },
        {
          "indexed": false,
          "internalType": "uint256",
          "name": "amount",
          "type": "uint256"
        },
        {
          "indexed": false,
          "internalType": "bool",
          "name": "won",
          "type": "bool"
        },
        {
          "indexed": false,
          "internalType": "uint256",
          "name": "rouletteResult",
          "type": "uint256"
        },
        {
          "indexed": false,
          "internalType": "uint256",
          "name": "payout",
          "type": "uint256"
        },
        {
          "indexed": false,
          "internalType": "uint256",
          "name": "requestId",
          "type": "uint256"
        }
      ],
      "name": "GameResult",
      "type": "event"
    },
    {
      "anonymous": false,
      "inputs": [
        {
          "indexed": false,
          "internalType": "uint256",
          "name": "newBalance",
          "type": "uint256"
        }
      ],
      "name": "HouseBalanceUpdated",
      "type": "event"
    },
    {
      "anonymous": false,
      "inputs": [
        {
          "indexed": true,
          "internalType": "address",
          "name": "from",
          "type": "address"
        },
        {
          "indexed": true,
          "internalType": "address",
          "name": "to",
          "type": "address"
        }
      ],
      "name": "OwnershipTransferRequested",
      "type": "event"
    },
    {
      "anonymous": false,
      "inputs": [
        {
          "indexed": true,
          "internalType": "address",
          "name": "from",
          "type": "address"
        },
        {
          "indexed": true,
          "internalType": "address",
          "name": "to",
          "type": "address"
        }
      ],
      "name": "OwnershipTransferred",
      "type": "event"
    },
    {
      "anonymous": false,
      "inputs": [
        {
          "indexed": false,
          "internalType": "uint256",
          "name": "requestId",
          "type": "uint256"
        },
        {
          "indexed": false,
          "internalType": "address",
          "name": "player",
          "type": "address"
        },
        {
          "indexed": false,
          "internalType": "uint256",
          "name": "amount",
          "type": "uint256"
        }
      ],
      "name": "VRFRequested",
      "type": "event"
    },
    {
      "stateMutability": "payable",
      "type": "fallback"
    },
    {
      "inputs": [],
      "name": "MAX_BET",
      "outputs": [
        {
          "internalType": "uint256",
          "name": "",
          "type": "uint256"
        }
      ],
      "stateMutability": "view",
      "type": "function"
    },
    {
      "inputs": [],
      "name": "MIN_BET",
      "outputs": [
        {
          "internalType": "uint256",
          "name": "",
          "type": "uint256"
        }
      ],
      "stateMutability": "view",
      "type": "function"
    },
    {
      "inputs": [],
      "name": "acceptOwnership",
      "outputs": [],
      "stateMutability": "nonpayable",
      "type": "function"
    },
    {
      "inputs": [],
      "name": "addHouseFunds",
      "outputs": [],
      "stateMutability": "payable",
      "type": "function"
    },
    {
      "inputs": [
        {
          "internalType": "uint256",
          "name": "requestId",
          "type": "uint256"
        }
      ],
      "name": "getBetInfo",
      "outputs": [
        {
          "internalType": "address",
          "name": "player",
          "type": "address"
        },
        {
          "internalType": "uint256",
          "name": "amount",
          "type": "uint256"
        },
        {
          "internalType": "bool",
          "name": "active",
          "type": "bool"
        },
        {
          "internalType": "uint256",
          "name": "timestamp",
          "type": "uint256"
        }
      ],
      "stateMutability": "view",
      "type": "function"
    },
    {
      "inputs": [],
      "name": "getCasinoStats",
      "outputs": [
        {
          "internalType": "uint256",
          "name": "balance",
          "type": "uint256"
        },
        {
          "internalType": "uint256",
          "name": "totalBets",
          "type": "uint256"
        },
        {
          "internalType": "uint256",
          "name": "totalPayoutsAmount",
          "type": "uint256"
        },
        {
          "internalType": "uint256",
          "name": "contractBalance",
          "type": "uint256"
        },
        {
          "internalType": "uint256",
          "name": "pendingBets",
          "type": "uint256"
        },
        {
          "internalType": "bool",
          "name": "isPaused",
          "type": "bool"
        }
      ],
      "stateMutability": "view",
      "type": "function"
    },
    {
      "inputs": [
        {
          "internalType": "address",
          "name": "player",
          "type": "address"
        }
      ],
      "name": "getPlayerStats",
      "outputs": [
        {
          "internalType": "uint256",
          "name": "wins",
          "type": "uint256"
        },
        {
          "internalType": "uint256",
          "name": "losses",
          "type": "uint256"
        },
        {
          "internalType": "uint256",
          "name": "totalGames",
          "type": "uint256"
        },
        {
          "internalType": "uint256",
          "name": "totalBetAmount",
          "type": "uint256"
        },
        {
          "internalType": "uint256",
          "name": "totalWonAmount",
          "type": "uint256"
        },
        {
          "internalType": "uint256",
          "name": "netResult",
          "type": "uint256"
        }
      ],
      "stateMutability": "view",
      "type": "function"
    },
    {
      "inputs": [],
      "name": "getVRFConfig",
      "outputs": [
        {
          "internalType": "uint64",
          "name": "subscriptionId",
          "type": "uint64"
        },
        {
          "internalType": "bytes32",
          "name": "keyHashValue",
          "type": "bytes32"
        },
        {
          "internalType": "uint32",
          "name": "gasLimit",
          "type": "uint32"
        },
        {
          "internalType": "uint16",
          "name": "confirmations",
          "type": "uint16"
        }
      ],
      "stateMutability": "view",
      "type": "function"
    },
    {
      "inputs": [],
      "name": "houseBalance",
      "outputs": [
        {
          "internalType": "uint256",
          "name": "",
          "type": "uint256"
        }
      ],
      "stateMutability": "view",
      "type": "function"
    },
    {
      "inputs": [],
      "name": "owner",
      "outputs": [
        {
          "internalType": "address",
          "name": "",
          "type": "address"
        }
      ],
      "stateMutability": "view",
      "type": "function"
    },
    {
      "inputs": [],
      "name": "pause",
      "outputs": [],
      "stateMutability": "nonpayable",
      "type": "function"
    },
    {
      "inputs": [],
      "name": "paused",
      "outputs": [
        {
          "internalType": "bool",
          "name": "",
          "type": "bool"
        }
      ],
      "stateMutability": "view",
      "type": "function"
    },
    {
      "inputs": [
        {
          "internalType": "uint256",
          "name": "",
          "type": "uint256"
        }
      ],
      "name": "pendingBets",
      "outputs": [
        {
          "internalType": "address",
          "name": "player",
          "type": "address"
        },
        {
          "internalType": "uint256",
          "name": "amount",
          "type": "uint256"
        },
        {
          "internalType": "bool",
          "name": "active",
          "type": "bool"
        },
        {
          "internalType": "uint256",
          "name": "timestamp",
          "type": "uint256"
        }
      ],
      "stateMutability": "view",
      "type": "function"
    },
    {
      "inputs": [],
      "name": "pendingBetsCount",
      "outputs": [
        {
          "internalType": "uint256",
          "name": "",
          "type": "uint256"
        }
      ],
      "stateMutability": "view",
      "type": "function"
    },
    {
      "inputs": [],
      "name": "placeBet",
      "outputs": [],
      "stateMutability": "payable",
      "type": "function"
    },
    {
      "inputs": [
        {
          "internalType": "address",
          "name": "",
          "type": "address"
        }
      ],
      "name": "playerLosses",
      "outputs": [
        {
          "internalType": "uint256",
          "name": "",
          "type": "uint256"
        }
      ],
      "stateMutability": "view",
      "type": "function"
    },
    {
      "inputs": [
        {
          "internalType": "address",
          "name": "",
          "type": "address"
        }
      ],
      "name": "playerTotalBet",
      "outputs": [
        {
          "internalType": "uint256",
          "name": "",
          "type": "uint256"
        }
      ],
      "stateMutability": "view",
      "type": "function"
    },
    {
      "inputs": [
        {
          "internalType": "address",
          "name": "",
          "type": "address"
        }
      ],
      "name": "playerTotalWon",
      "outputs": [
        {
          "internalType": "uint256",
          "name": "",
          "type": "uint256"
        }
      ],
      "stateMutability": "view",
      "type": "function"
    },
    {
      "inputs": [
        {
          "internalType": "address",
          "name": "",
          "type": "address"
        }
      ],
      "name": "playerWins",
      "outputs": [
        {
          "internalType": "uint256",
          "name": "",
          "type": "uint256"
        }
      ],
      "stateMutability": "view",
      "type": "function"
    },
    {
      "inputs": [
        {
          "internalType": "uint256",
          "name": "requestId",
          "type": "uint256"
        },
        {
          "internalType": "uint256[]",
          "name": "randomWords",
          "type": "uint256[]"
        }
      ],
      "name": "rawFulfillRandomWords",
      "outputs": [],
      "stateMutability": "nonpayable",
      "type": "function"
    },
    {
      "inputs": [
        {
          "internalType": "uint256",
          "name": "requestId",
          "type": "uint256"
        }
      ],
      "name": "resolveStuckBet",
      "outputs": [],
      "stateMutability": "nonpayable",
      "type": "function"
    },
    {
      "inputs": [],
      "name": "totalBetsPlaced",
      "outputs": [
        {
          "internalType": "uint256",
          "name": "",
          "type": "uint256"
        }
      ],
      "stateMutability": "view",
      "type": "function"
    },
    {
      "inputs": [],
      "name": "totalPayouts",
      "outputs": [
        {
          "internalType": "uint256",
          "name": "",
          "type": "uint256"
        }
      ],
      "stateMutability": "view",
      "type": "function"
    },
    {
      "inputs": [
        {
          "internalType": "address",
          "name": "to",
          "type": "address"
        }
      ],
      "name": "transferOwnership",
      "outputs": [],
      "stateMutability": "nonpayable",
      "type": "function"
    },
    {
      "inputs": [],
      "name": "unpause",
      "outputs": [],
      "stateMutability": "nonpayable",
      "type": "function"
    },
    {
      "inputs": [
        {
          "internalType": "uint64",
          "name": "newSubscriptionId",
          "type": "uint64"
        }
      ],
      "name": "updateSubscriptionId",
      "outputs": [],
      "stateMutability": "nonpayable",
      "type": "function"
    },
    {
      "inputs": [
        {
          "internalType": "bytes32",
          "name": "newKeyHash",
          "type": "bytes32"
        },
        {
          "internalType": "uint32",
          "name": "newCallbackGasLimit",
          "type": "uint32"
        },
        {
          "internalType": "uint16",
          "name": "newRequestConfirmations",
          "type": "uint16"
        }
      ],
      "name": "updateVRFConfig",
      "outputs": [],
      "stateMutability": "nonpayable",
      "type": "function"
    },
    {
      "inputs": [
        {
          "internalType": "uint256",
          "name": "amount",
          "type": "uint256"
        }
      ],
      "name": "withdrawHouseFunds",
      "outputs": [],
      "stateMutability": "nonpayable",
      "type": "function"
    },
    {
      "stateMutability": "payable",
      "type": "receive"
    }
  ],
  "bytecode": "0x60a0604052620186a0600460006101000a81548163ffffffff021916908363ffffffff16021790555060036004806101000a81548161ffff021916908361ffff1602179055506001600460066101000a81548163ffffffff021916908363ffffffff1602179055506000600660006101000a81548160ff0219169083151502179055503480156200008f57600080fd5b5060405162003188380380620031888339818101604052810190620000b5919062000486565b33806000848073ffffffffffffffffffffffffffffffffffffffff1660808173ffffffffffffffffffffffffffffffffffffffff168152505050600073ffffffffffffffffffffffffffffffffffffffff168273ffffffffffffffffffffffffffffffffffffffff160362000161576040517f08c379a0000000000000000000000000000000000000000000000000000000008152600401620001589062000543565b60405180910390fd5b816000806101000a81548173ffffffffffffffffffffffffffffffffffffffff021916908373ffffffffffffffffffffffffffffffffffffffff160217905550600073ffffffffffffffffffffffffffffffffffffffff168173ffffffffffffffffffffffffffffffffffffffff1614620001e857620001e7816200026d60201b60201c565b5b50505081600260006101000a81548173ffffffffffffffffffffffffffffffffffffffff021916908373ffffffffffffffffffffffffffffffffffffffff16021790555082600260146101000a81548167ffffffffffffffff021916908367ffffffffffffffff160217905550806003819055506000600581905550505050620005d7565b3373ffffffffffffffffffffffffffffffffffffffff168173ffffffffffffffffffffffffffffffffffffffff1603620002de576040517f08c379a0000000000000000000000000000000000000000000000000000000008152600401620002d590620005b5565b60405180910390fd5b80600160006101000a81548173ffffffffffffffffffffffffffffffffffffffff021916908373ffffffffffffffffffffffffffffffffffffffff1602179055508073ffffffffffffffffffffffffffffffffffffffff1660008054906101000a900473ffffffffffffffffffffffffffffffffffffffff1673ffffffffffffffffffffffffffffffffffffffff167fed8889f560326eb138920d842192f0eb3dd22b4f139c87a2c57538e05bae127860405160405180910390a350565b600080fd5b600067ffffffffffffffff82169050919050565b620003c081620003a1565b8114620003cc57600080fd5b50565b600081519050620003e081620003b5565b92915050565b600073ffffffffffffffffffffffffffffffffffffffff82169050919050565b60006200041382620003e6565b9050919050565b620004258162000406565b81146200043157600080fd5b50565b60008151905062000445816200041a565b92915050565b6000819050919050565b62000460816200044b565b81146200046c57600080fd5b50565b600081519050620004808162000455565b92915050565b600080600060608486031215620004a257620004a16200039c565b5b6000620004b286828701620003cf565b9350506020620004c58682870162000434565b9250506040620004d8868287016200046f565b9150509250925092565b600082825260208201905092915050565b7f43616e6e6f7420736574206f776e657220746f207a65726f0000000000000000600082015250565b60006200052b601883620004e2565b91506200053882620004f3565b602082019050919050565b600060208201905081810360008301526200055e816200051c565b9050919050565b7f43616e6e6f74207472616e7366657220746f2073656c66000000000000000000600082015250565b60006200059d601783620004e2565b9150620005aa8262000565565b602082019050919050565b60006020820190508181036000830152620005d0816200058e565b9050919050565b608051612b8e620005fa600039600081816107bc01526108100152612b8e6000f3fe6080604052600436106101bb5760003560e01c80637d59441a116100ec5780639a5ea6a01161008a578063f2fde38b11610064578063f2fde38b1461068a578063f8b64cf3146106b3578063f90f4560146106dc578063fedb848a146106e657610214565b80639a5ea6a014610615578063a59b9eb214610643578063c94cd4411461064d57610214565b80638ab9de99116100c65780638ab9de99146105475780638b31fb89146105705780638da5cb5b146105ad5780638ed2b47e146105d857610214565b80637d59441a146104dc5780637e95b523146105055780638456cb591461053057610214565b80634fd66eae1161015957806367084eb31161013357806367084eb31461042f5780636f6da6081461045a57806379141f801461048557806379ba5097146104c557610214565b80634fd66eae146103975780635c975abb146103d95780636540742f1461040457610214565b80631fe543e3116101955780631fe543e3146102fc5780633f4ba83a146103255780633ff3bbe11461033c5780634089b1701461036c57610214565b806301abd6d71461026857806304fc9d7c146102a857806314b1dd1b146102d357610214565b366102145734600560008282546101d29190611c0d565b925050819055507f19f203114d0f39567ed623e6cfe9bc776d597751bc2e7f8762707ac3f0a30a2a60055460405161020a9190611c50565b60405180910390a1005b34600560008282546102269190611c0d565b925050819055507f19f203114d0f39567ed623e6cfe9bc776d597751bc2e7f8762707ac3f0a30a2a60055460405161025e9190611c50565b60405180910390a1005b34801561027457600080fd5b5061028f600480360381019061028a9190611cab565b610723565b60405161029f9493929190611d34565b60405180910390f35b3480156102b457600080fd5b506102bd610780565b6040516102ca9190611c50565b60405180910390f35b3480156102df57600080fd5b506102fa60048036038101906102f59190611db9565b610786565b005b34801561030857600080fd5b50610323600480360381019061031e9190611f3f565b6107ba565b005b34801561033157600080fd5b5061033a61087a565b005b34801561034857600080fd5b5061035161089f565b60405161036396959493929190611f9b565b60405180910390f35b34801561037857600080fd5b506103816108d9565b60405161038e9190611c50565b60405180910390f35b3480156103a357600080fd5b506103be60048036038101906103b99190612028565b6108df565b6040516103d096959493929190612055565b60405180910390f35b3480156103e557600080fd5b506103ee610a30565b6040516103fb91906120b6565b60405180910390f35b34801561041057600080fd5b50610419610a43565b6040516104269190611c50565b60405180910390f35b34801561043b57600080fd5b50610444610a4e565b6040516104519190611c50565b60405180910390f35b34801561046657600080fd5b5061046f610a54565b60405161047c9190611c50565b60405180910390f35b34801561049157600080fd5b506104ac60048036038101906104a79190611cab565b610a5a565b6040516104bc9493929190611d34565b60405180910390f35b3480156104d157600080fd5b506104da610ac8565b005b3480156104e857600080fd5b5061050360048036038101906104fe9190611cab565b610c5d565b005b34801561051157600080fd5b5061051a610d90565b6040516105279190611c50565b60405180910390f35b34801561053c57600080fd5b50610545610d9b565b005b34801561055357600080fd5b5061056e60048036038101906105699190611cab565b610dc0565b005b34801561057c57600080fd5b5061059760048036038101906105929190612028565b610fd3565b6040516105a49190611c50565b60405180910390f35b3480156105b957600080fd5b506105c2610feb565b6040516105cf91906120d1565b60405180910390f35b3480156105e457600080fd5b506105ff60048036038101906105fa9190612028565b611014565b60405161060c9190611c50565b60405180910390f35b34801561062157600080fd5b5061062a61102c565b60405161063a9493929190612150565b60405180910390f35b61064b61107c565b005b34801561065957600080fd5b50610674600480360381019061066f9190612028565b6110d8565b6040516106819190611c50565b60405180910390f35b34801561069657600080fd5b506106b160048036038101906106ac9190612028565b6110f0565b005b3480156106bf57600080fd5b506106da60048036038101906106d59190612219565b611104565b005b6106e4611155565b005b3480156106f257600080fd5b5061070d60048036038101906107089190612028565b61154a565b60405161071a9190611c50565b60405180910390f35b60076020528060005260406000206000915090508060000160009054906101000a900473ffffffffffffffffffffffffffffffffffffffff16908060010154908060020160009054906101000a900460ff16908060030154905084565b600c5481565b61078e611562565b80600260146101000a81548167ffffffffffffffff021916908367ffffffffffffffff16021790555050565b7f000000000000000000000000000000000000000000000000000000000000000073ffffffffffffffffffffffffffffffffffffffff163373ffffffffffffffffffffffffffffffffffffffff161461086c57337f00000000000000000000000000000000000000000000000000000000000000006040517f1cf993f400000000000000000000000000000000000000000000000000000000815260040161086392919061226c565b60405180910390fd5b61087682826115f2565b5050565b610882611562565b6000600660006101000a81548160ff021916908315150217905550565b6000806000806000806005549550600c549450600d549350479250600e549150600660009054906101000a900460ff169050909192939495565b600d5481565b600080600080600080600860008873ffffffffffffffffffffffffffffffffffffffff1673ffffffffffffffffffffffffffffffffffffffff168152602001908152602001600020549550600960008873ffffffffffffffffffffffffffffffffffffffff1673ffffffffffffffffffffffffffffffffffffffff16815260200190815260200160002054945084866109789190611c0d565b9350600a60008873ffffffffffffffffffffffffffffffffffffffff1673ffffffffffffffffffffffffffffffffffffffff168152602001908152602001600020549250600b60008873ffffffffffffffffffffffffffffffffffffffff1673ffffffffffffffffffffffffffffffffffffffff168152602001908152602001600020549150828210610a18578282610a119190612295565b9050610a27565b8183610a249190612295565b90505b91939550919395565b600660009054906101000a900460ff1681565b66038d7ea4c6800081565b60055481565b600e5481565b60008060008060006007600087815260200190815260200160002090508060000160009054906101000a900473ffffffffffffffffffffffffffffffffffffffff1681600101548260020160009054906101000a900460ff1683600301549450945094509450509193509193565b600160009054906101000a900473ffffffffffffffffffffffffffffffffffffffff1673ffffffffffffffffffffffffffffffffffffffff163373ffffffffffffffffffffffffffffffffffffffff1614610b58576040517f08c379a0000000000000000000000000000000000000000000000000000000008152600401610b4f90612326565b60405180910390fd5b60008060009054906101000a900473ffffffffffffffffffffffffffffffffffffffff169050336000806101000a81548173ffffffffffffffffffffffffffffffffffffffff021916908373ffffffffffffffffffffffffffffffffffffffff1602179055506000600160006101000a81548173ffffffffffffffffffffffffffffffffffffffff021916908373ffffffffffffffffffffffffffffffffffffffff1602179055503373ffffffffffffffffffffffffffffffffffffffff168173ffffffffffffffffffffffffffffffffffffffff167f8be0079c531659141344cd1fd0a4f28419497f9722a3daafe3b4186f6b6457e060405160405180910390a350565b610c65611562565b600554811115610caa576040517f08c379a0000000000000000000000000000000000000000000000000000000008152600401610ca190612392565b60405180910390fd5b47811115610ced576040517f08c379a0000000000000000000000000000000000000000000000000000000008152600401610ce4906123fe565b60405180910390fd5b8060056000828254610cff9190612295565b92505081905550610d0e610feb565b73ffffffffffffffffffffffffffffffffffffffff166108fc829081150290604051600060405180830381858888f19350505050158015610d53573d6000803e3d6000fd5b507f19f203114d0f39567ed623e6cfe9bc776d597751bc2e7f8762707ac3f0a30a2a600554604051610d859190611c50565b60405180910390a150565b6611c37937e0800081565b610da3611562565b6001600660006101000a81548160ff021916908315150217905550565b610dc8611562565b6007600082815260200190815260200160002060020160009054906101000a900460ff16610e2b576040517f08c379a0000000000000000000000000000000000000000000000000000000008152600401610e229061246a565b60405180910390fd5b610e106007600083815260200190815260200160002060030154610e4f9190611c0d565b421015610e91576040517f08c379a0000000000000000000000000000000000000000000000000000000008152600401610e88906124d6565b60405180910390fd5b60006007600083815260200190815260200160002090508060000160009054906101000a900473ffffffffffffffffffffffffffffffffffffffff1673ffffffffffffffffffffffffffffffffffffffff166108fc82600101549081150290604051600060405180830381858888f19350505050158015610f16573d6000803e3d6000fd5b5060008160020160006101000a81548160ff021916908315150217905550600e6000815480929190610f47906124f6565b91905055508060000160009054906101000a900473ffffffffffffffffffffffffffffffffffffffff1673ffffffffffffffffffffffffffffffffffffffff167fdb47eb0c2347a41b87ae41243254079ec631776801901258e10b9da4b34043fa8260010154600080856001015487604051610fc7959493929190612564565b60405180910390a25050565b60086020528060005260406000206000915090505481565b60008060009054906101000a900473ffffffffffffffffffffffffffffffffffffffff16905090565b600b6020528060005260406000206000915090505481565b600080600080600260149054906101000a900467ffffffffffffffff16600354600460009054906101000a900463ffffffff1660048054906101000a900461ffff16935093509350935090919293565b611084611562565b34600560008282546110969190611c0d565b925050819055507f19f203114d0f39567ed623e6cfe9bc776d597751bc2e7f8762707ac3f0a30a2a6005546040516110ce9190611c50565b60405180910390a1565b600a6020528060005260406000206000915090505481565b6110f8611562565b61110181611aa8565b50565b61110c611562565b8260038190555081600460006101000a81548163ffffffff021916908363ffffffff160217905550806004806101000a81548161ffff021916908361ffff160217905550505050565b66038d7ea4c6800034101561119f576040517f08c379a000000000000000000000000000000000000000000000000000000000815260040161119690612603565b60405180910390fd5b6611c37937e080003411156111e9576040517f08c379a00000000000000000000000000000000000000000000000000000000081526004016111e09061266f565b60405180910390fd5b600660009054906101000a900460ff1615611239576040517f08c379a0000000000000000000000000000000000000000000000000000000008152600401611230906126db565b60405180910390fd5b600060023461124891906126fb565b905034600554101561128f576040517f08c379a0000000000000000000000000000000000000000000000000000000008152600401611286906127af565b60405180910390fd5b6000600260009054906101000a900473ffffffffffffffffffffffffffffffffffffffff1673ffffffffffffffffffffffffffffffffffffffff16635d3b1d30600354600260149054906101000a900467ffffffffffffffff1660048054906101000a900461ffff16600460009054906101000a900463ffffffff16600460069054906101000a900463ffffffff166040518663ffffffff1660e01b815260040161133e9594939291906127cf565b6020604051808303816000875af115801561135d573d6000803e3d6000fd5b505050506040513d601f19601f820116820180604052508101906113819190612837565b905060405180608001604052803373ffffffffffffffffffffffffffffffffffffffff168152602001348152602001600115158152602001428152506007600083815260200190815260200160002060008201518160000160006101000a81548173ffffffffffffffffffffffffffffffffffffffff021916908373ffffffffffffffffffffffffffffffffffffffff1602179055506020820151816001015560408201518160020160006101000a81548160ff02191690831515021790555060608201518160030155905050600e600081548092919061146190612864565b919050555034600a60003373ffffffffffffffffffffffffffffffffffffffff1673ffffffffffffffffffffffffffffffffffffffff16815260200190815260200160002060008282546114b59190611c0d565b925050819055503373ffffffffffffffffffffffffffffffffffffffff167e1ecf1d0c4d22f324b3ecb9cdf0e5f772bc74ac104e6626f4b3845433d0310534836040516115039291906128ac565b60405180910390a27f839e3de3b433d8c1644854e3c51bbc06808560f5f85001d55d56bce1a3a4b6fc81333460405161153e939291906128d5565b60405180910390a15050565b60096020528060005260406000206000915090505481565b60008054906101000a900473ffffffffffffffffffffffffffffffffffffffff1673ffffffffffffffffffffffffffffffffffffffff163373ffffffffffffffffffffffffffffffffffffffff16146115f0576040517f08c379a00000000000000000000000000000000000000000000000000000000081526004016115e790612958565b60405180910390fd5b565b6007600083815260200190815260200160002060020160009054906101000a900460ff16611655576040517f08c379a000000000000000000000000000000000000000000000000000000000815260040161164c906129ea565b60405180910390fd5b600060076000848152602001908152602001600020905060008260008151811061168257611681612a0a565b5b602002602001015190506000600160328361169d9190612a68565b6116a79190611c0d565b9050600080601983116118fc5760019150600285600101546116c991906126fb565b90508460010154600554101580156116e15750804710155b1561187f578460010154600560008282546116fc9190612295565b925050819055508460000160009054906101000a900473ffffffffffffffffffffffffffffffffffffffff1673ffffffffffffffffffffffffffffffffffffffff166108fc829081150290604051600060405180830381858888f1935050505015801561176d573d6000803e3d6000fd5b50600860008660000160009054906101000a900473ffffffffffffffffffffffffffffffffffffffff1673ffffffffffffffffffffffffffffffffffffffff1673ffffffffffffffffffffffffffffffffffffffff16815260200190815260200160002060008154809291906117e290612864565b919050555080600b60008760000160009054906101000a900473ffffffffffffffffffffffffffffffffffffffff1673ffffffffffffffffffffffffffffffffffffffff1673ffffffffffffffffffffffffffffffffffffffff168152602001908152602001600020600082825461185a9190611c0d565b9250508190555080600d60008282546118739190611c0d565b925050819055506118f7565b60009150600090508460000160009054906101000a900473ffffffffffffffffffffffffffffffffffffffff1673ffffffffffffffffffffffffffffffffffffffff166108fc86600101549081150290604051600060405180830381858888f193505050501580156118f5573d6000803e3d6000fd5b505b61199b565b600091506000905084600101546005600082825461191a9190611c0d565b92505081905550600960008660000160009054906101000a900473ffffffffffffffffffffffffffffffffffffffff1673ffffffffffffffffffffffffffffffffffffffff1673ffffffffffffffffffffffffffffffffffffffff168152602001908152602001600020600081548092919061199590612864565b91905055505b60008560020160006101000a81548160ff021916908315150217905550600c60008154809291906119cb90612864565b9190505550600e60008154809291906119e3906124f6565b91905055508460000160009054906101000a900473ffffffffffffffffffffffffffffffffffffffff1673ffffffffffffffffffffffffffffffffffffffff167fdb47eb0c2347a41b87ae41243254079ec631776801901258e10b9da4b34043fa86600101548486858c604051611a5e959493929190612a99565b60405180910390a27f19f203114d0f39567ed623e6cfe9bc776d597751bc2e7f8762707ac3f0a30a2a600554604051611a979190611c50565b60405180910390a150505050505050565b3373ffffffffffffffffffffffffffffffffffffffff168173ffffffffffffffffffffffffffffffffffffffff1603611b16576040517f08c379a0000000000000000000000000000000000000000000000000000000008152600401611b0d90612b38565b60405180910390fd5b80600160006101000a81548173ffffffffffffffffffffffffffffffffffffffff021916908373ffffffffffffffffffffffffffffffffffffffff1602179055508073ffffffffffffffffffffffffffffffffffffffff1660008054906101000a900473ffffffffffffffffffffffffffffffffffffffff1673ffffffffffffffffffffffffffffffffffffffff167fed8889f560326eb138920d842192f0eb3dd22b4f139c87a2c57538e05bae127860405160405180910390a350565b6000819050919050565b7f4e487b7100000000000000000000000000000000000000000000000000000000600052601160045260246000fd5b6000611c1882611bd4565b9150611c2383611bd4565b9250828201905080821115611c3b57611c3a611bde565b5b92915050565b611c4a81611bd4565b82525050565b6000602082019050611c656000830184611c41565b92915050565b6000604051905090565b600080fd5b600080fd5b611c8881611bd4565b8114611c9357600080fd5b50565b600081359050611ca581611c7f565b92915050565b600060208284031215611cc157611cc0611c75565b5b6000611ccf84828501611c96565b91505092915050565b600073ffffffffffffffffffffffffffffffffffffffff82169050919050565b6000611d0382611cd8565b9050919050565b611d1381611cf8565b82525050565b60008115159050919050565b611d2e81611d19565b82525050565b6000608082019050611d496000830187611d0a565b611d566020830186611c41565b611d636040830185611d25565b611d706060830184611c41565b95945050505050565b600067ffffffffffffffff82169050919050565b611d9681611d79565b8114611da157600080fd5b50565b600081359050611db381611d8d565b92915050565b600060208284031215611dcf57611dce611c75565b5b6000611ddd84828501611da4565b91505092915050565b600080fd5b6000601f19601f8301169050919050565b7f4e487b7100000000000000000000000000000000000000000000000000000000600052604160045260246000fd5b611e3482611deb565b810181811067ffffffffffffffff82111715611e5357611e52611dfc565b5b80604052505050565b6000611e66611c6b565b9050611e728282611e2b565b919050565b600067ffffffffffffffff821115611e9257611e91611dfc565b5b602082029050602081019050919050565b600080fd5b6000611ebb611eb684611e77565b611e5c565b90508083825260208201905060208402830185811115611ede57611edd611ea3565b5b835b81811015611f075780611ef38882611c96565b845260208401935050602081019050611ee0565b5050509392505050565b600082601f830112611f2657611f25611de6565b5b8135611f36848260208601611ea8565b91505092915050565b60008060408385031215611f5657611f55611c75565b5b6000611f6485828601611c96565b925050602083013567ffffffffffffffff811115611f8557611f84611c7a565b5b611f9185828601611f11565b9150509250929050565b600060c082019050611fb06000830189611c41565b611fbd6020830188611c41565b611fca6040830187611c41565b611fd76060830186611c41565b611fe46080830185611c41565b611ff160a0830184611d25565b979650505050505050565b61200581611cf8565b811461201057600080fd5b50565b60008135905061202281611ffc565b92915050565b60006020828403121561203e5761203d611c75565b5b600061204c84828501612013565b91505092915050565b600060c08201905061206a6000830189611c41565b6120776020830188611c41565b6120846040830187611c41565b6120916060830186611c41565b61209e6080830185611c41565b6120ab60a0830184611c41565b979650505050505050565b60006020820190506120cb6000830184611d25565b92915050565b60006020820190506120e66000830184611d0a565b92915050565b6120f581611d79565b82525050565b6000819050919050565b61210e816120fb565b82525050565b600063ffffffff82169050919050565b61212d81612114565b82525050565b600061ffff82169050919050565b61214a81612133565b82525050565b600060808201905061216560008301876120ec565b6121726020830186612105565b61217f6040830185612124565b61218c6060830184612141565b95945050505050565b61219e816120fb565b81146121a957600080fd5b50565b6000813590506121bb81612195565b92915050565b6121ca81612114565b81146121d557600080fd5b50565b6000813590506121e7816121c1565b92915050565b6121f681612133565b811461220157600080fd5b50565b600081359050612213816121ed565b92915050565b60008060006060848603121561223257612231611c75565b5b6000612240868287016121ac565b9350506020612251868287016121d8565b925050604061226286828701612204565b9150509250925092565b60006040820190506122816000830185611d0a565b61228e6020830184611d0a565b9392505050565b60006122a082611bd4565b91506122ab83611bd4565b92508282039050818111156122c3576122c2611bde565b5b92915050565b600082825260208201905092915050565b7f4d7573742062652070726f706f736564206f776e657200000000000000000000600082015250565b60006123106016836122c9565b915061231b826122da565b602082019050919050565b6000602082019050818103600083015261233f81612303565b9050919050565b7f53616c646f20696e737566696369656e7465206e612063617361000000000000600082015250565b600061237c601a836122c9565b915061238782612346565b602082019050919050565b600060208201905081810360008301526123ab8161236f565b9050919050565b7f436f6e747261746f2073656d2073616c646f20737566696369656e7465000000600082015250565b60006123e8601d836122c9565b91506123f3826123b2565b602082019050919050565b60006020820190508181036000830152612417816123db565b9050919050565b7f41706f737461206e616f20617469766100000000000000000000000000000000600082015250565b60006124546010836122c9565b915061245f8261241e565b602082019050919050565b6000602082019050818103600083015261248381612447565b9050919050565b7f41706f737461206d7569746f20726563656e7465000000000000000000000000600082015250565b60006124c06014836122c9565b91506124cb8261248a565b602082019050919050565b600060208201905081810360008301526124ef816124b3565b9050919050565b600061250182611bd4565b91506000820361251457612513611bde565b5b600182039050919050565b6000819050919050565b6000819050919050565b600061254e6125496125448461251f565b612529565b611bd4565b9050919050565b61255e81612533565b82525050565b600060a0820190506125796000830188611c41565b6125866020830187611d25565b6125936040830186612555565b6125a06060830185611c41565b6125ad6080830184611c41565b9695505050505050565b7f41706f737461206d7569746f2062616978610000000000000000000000000000600082015250565b60006125ed6012836122c9565b91506125f8826125b7565b602082019050919050565b6000602082019050818103600083015261261c816125e0565b9050919050565b7f41706f737461206d7569746f20616c7461000000000000000000000000000000600082015250565b60006126596011836122c9565b915061266482612623565b602082019050919050565b600060208201905081810360008301526126888161264c565b9050919050565b7f436f6e747261746f207061757361646f00000000000000000000000000000000600082015250565b60006126c56010836122c9565b91506126d08261268f565b602082019050919050565b600060208201905081810360008301526126f4816126b8565b9050919050565b600061270682611bd4565b915061271183611bd4565b925082820261271f81611bd4565b9150828204841483151761273657612735611bde565b5b5092915050565b7f436173696e6f206e616f2074656d2066756e646f7320737566696369656e746560008201527f7300000000000000000000000000000000000000000000000000000000000000602082015250565b60006127996021836122c9565b91506127a48261273d565b604082019050919050565b600060208201905081810360008301526127c88161278c565b9050919050565b600060a0820190506127e46000830188612105565b6127f160208301876120ec565b6127fe6040830186612141565b61280b6060830185612124565b6128186080830184612124565b9695505050505050565b60008151905061283181611c7f565b92915050565b60006020828403121561284d5761284c611c75565b5b600061285b84828501612822565b91505092915050565b600061286f82611bd4565b91507fffffffffffffffffffffffffffffffffffffffffffffffffffffffffffffffff82036128a1576128a0611bde565b5b600182019050919050565b60006040820190506128c16000830185611c41565b6128ce6020830184611c41565b9392505050565b60006060820190506128ea6000830186611c41565b6128f76020830185611d0a565b6129046040830184611c41565b949350505050565b7f4f6e6c792063616c6c61626c65206279206f776e657200000000000000000000600082015250565b60006129426016836122c9565b915061294d8261290c565b602082019050919050565b6000602082019050818103600083015261297181612935565b9050919050565b7f41706f737461206e616f206174697661206f75206a612070726f63657373616460008201527f6100000000000000000000000000000000000000000000000000000000000000602082015250565b60006129d46021836122c9565b91506129df82612978565b604082019050919050565b60006020820190508181036000830152612a03816129c7565b9050919050565b7f4e487b7100000000000000000000000000000000000000000000000000000000600052603260045260246000fd5b7f4e487b7100000000000000000000000000000000000000000000000000000000600052601260045260246000fd5b6000612a7382611bd4565b9150612a7e83611bd4565b925082612a8e57612a8d612a39565b5b828206905092915050565b600060a082019050612aae6000830188611c41565b612abb6020830187611d25565b612ac86040830186611c41565b612ad56060830185611c41565b612ae26080830184611c41565b9695505050505050565b7f43616e6e6f74207472616e7366657220746f2073656c66000000000000000000600082015250565b6000612b226017836122c9565b9150612b2d82612aec565b602082019050919050565b60006020820190508181036000830152612b5181612b15565b905091905056fea26469706673582212202b782d90d8e46ad0a3aac098d8c24a309fd496d7bcb632d4cfcbc8fd4be6e09f64736f6c63430008140033",
  "linkReferences": {},
  "deployedLinkReferences": {}
}