{
  "_format": "hh-sol-artifact-1",
  "contractName": "VRFCoordinatorV2Mock",
  "sourceName": "contracts/VRFCoordinatorV2Mock.sol",
  "abi": [
    {
      "inputs": [
        {
          "internalType": "uint96",
          "name": "baseFee",
          "type": "uint96"
        },
        {
          "internalType": "uint96",
          "name": "gasPriceLink",
          "type": "uint96"
        }
      ],
      "stateMutability": "nonpayable",
      "type": "constructor"
    },
    {
      "anonymous": false,
      "inputs": [
        {
          "indexed": false,
          "internalType": "uint64",
          "name": "subId",
          "type": "uint64"
        }
      ],
      "name": "SubscriptionCreated",
      "type": "event"
    },
    {
      "inputs": [
        {
          "internalType": "uint64",
          "name": "subId",
          "type": "uint64"
        }
      ],
      "name": "acceptSubscriptionOwnerTransfer",
      "outputs": [],
      "stateMutability": "nonpayable",
      "type": "function"
    },
    {
      "inputs": [
        {
          "internalType": "uint64",
          "name": "subId",
          "type": "uint64"
        },
        {
          "internalType": "address",
          "name": "consumer",
          "type": "address"
        }
      ],
      "name": "addConsumer",
      "outputs": [],
      "stateMutability": "nonpayable",
      "type": "function"
    },
    {
      "inputs": [
        {
          "internalType": "uint64",
          "name": "subId",
          "type": "uint64"
        },
        {
          "internalType": "address",
          "name": "to",
          "type": "address"
        }
      ],
      "name": "cancelSubscription",
      "outputs": [],
      "stateMutability": "nonpayable",
      "type": "function"
    },
    {
      "inputs": [],
      "name": "createSubscription",
      "outputs": [
        {
          "internalType": "uint64",
          "name": "subId",
          "type": "uint64"
        }
      ],
      "stateMutability": "nonpayable",
      "type": "function"
    },
    {
      "inputs": [
        {
          "internalType": "uint256",
          "name": "_requestId",
          "type": "uint256"
        },
        {
          "internalType": "address",
          "name": "_consumer",
          "type": "address"
        },
        {
          "internalType": "uint256[]",
          "name": "_randomWords",
          "type": "uint256[]"
        }
      ],
      "name": "fulfillRandomWordsWithResult",
      "outputs": [],
      "stateMutability": "nonpayable",
      "type": "function"
    },
    {
      "inputs": [
        {
          "internalType": "uint64",
          "name": "subId",
          "type": "uint64"
        },
        {
          "internalType": "uint96",
          "name": "amount",
          "type": "uint96"
        }
      ],
      "name": "fundSubscription",
      "outputs": [],
      "stateMutability": "nonpayable",
      "type": "function"
    },
    {
      "inputs": [],
      "name": "getFeeConfig",
      "outputs": [
        {
          "internalType": "uint32",
          "name": "",
          "type": "uint32"
        },
        {
          "internalType": "uint32",
          "name": "",
          "type": "uint32"
        },
        {
          "internalType": "uint32",
          "name": "",
          "type": "uint32"
        },
        {
          "internalType": "uint32",
          "name": "",
          "type": "uint32"
        },
        {
          "internalType": "uint24",
          "name": "",
          "type": "uint24"
        },
        {
          "internalType": "uint24",
          "name": "",
          "type": "uint24"
        },
        {
          "internalType": "uint24",
          "name": "",
          "type": "uint24"
        },
        {
          "internalType": "uint24",
          "name": "",
          "type": "uint24"
        }
      ],
      "stateMutability": "view",
      "type": "function"
    },
    {
      "inputs": [],
      "name": "getRequestConfig",
      "outputs": [
        {
          "internalType": "uint16",
          "name": "",
          "type": "uint16"
        },
        {
          "internalType": "uint32",
          "name": "",
          "type": "uint32"
        },
        {
          "internalType": "bytes32[]",
          "name": "",
          "type": "bytes32[]"
        }
      ],
      "stateMutability": "view",
      "type": "function"
    },
    {
      "inputs": [
        {
          "internalType": "uint64",
          "name": "subId",
          "type": "uint64"
        }
      ],
      "name": "getSubscription",
      "outputs": [
        {
          "internalType": "uint96",
          "name": "balance",
          "type": "uint96"
        },
        {
          "internalType": "uint64",
          "name": "reqCount",
          "type": "uint64"
        },
        {
          "internalType": "address",
          "name": "owner",
          "type": "address"
        },
        {
          "internalType": "address[]",
          "name": "consumers",
          "type": "address[]"
        }
      ],
      "stateMutability": "view",
      "type": "function"
    },
    {
      "inputs": [],
      "name": "lastConsumer",
      "outputs": [
        {
          "internalType": "address",
          "name": "",
          "type": "address"
        }
      ],
      "stateMutability": "view",
      "type": "function"
    },
    {
      "inputs": [],
      "name": "lastRequestId",
      "outputs": [
        {
          "internalType": "uint256",
          "name": "",
          "type": "uint256"
        }
      ],
      "stateMutability": "view",
      "type": "function"
    },
    {
      "inputs": [
        {
          "internalType": "uint64",
          "name": "subId",
          "type": "uint64"
        }
      ],
      "name": "pendingRequestExists",
      "outputs": [
        {
          "internalType": "bool",
          "name": "",
          "type": "bool"
        }
      ],
      "stateMutability": "view",
      "type": "function"
    },
    {
      "inputs": [
        {
          "internalType": "uint64",
          "name": "subId",
          "type": "uint64"
        },
        {
          "internalType": "address",
          "name": "consumer",
          "type": "address"
        }
      ],
      "name": "removeConsumer",
      "outputs": [],
      "stateMutability": "nonpayable",
      "type": "function"
    },
    {
      "inputs": [
        {
          "internalType": "uint256",
          "name": "",
          "type": "uint256"
        }
      ],
      "name": "requestExists",
      "outputs": [
        {
          "internalType": "bool",
          "name": "",
          "type": "bool"
        }
      ],
      "stateMutability": "view",
      "type": "function"
    },
    {
      "inputs": [
        {
          "internalType": "bytes32",
          "name": "",
          "type": "bytes32"
        },
        {
          "internalType": "uint64",
          "name": "subId",
          "type": "uint64"
        },
        {
          "internalType": "uint16",
          "name": "",
          "type": "uint16"
        },
        {
          "internalType": "uint32",
          "name": "",
          "type": "uint32"
        },
        {
          "internalType": "uint32",
          "name": "",
          "type": "uint32"
        }
      ],
      "name": "requestRandomWords",
      "outputs": [
        {
          "internalType": "uint256",
          "name": "requestId",
          "type": "uint256"
        }
      ],
      "stateMutability": "nonpayable",
      "type": "function"
    },
    {
      "inputs": [
        {
          "internalType": "uint64",
          "name": "subId",
          "type": "uint64"
        },
        {
          "internalType": "address",
          "name": "newOwner",
          "type": "address"
        }
      ],
      "name": "requestSubscriptionOwnerTransfer",
      "outputs": [],
      "stateMutability": "nonpayable",
      "type": "function"
    }
  ],
  "bytecode": "0x60806040523480156200001157600080fd5b506040516200177038038062001770833981810160405281019062000037919062000117565b816000806101000a8154816bffffffffffffffffffffffff02191690836bffffffffffffffffffffffff160217905550806000600c6101000a8154816bffffffffffffffffffffffff02191690836bffffffffffffffffffffffff16021790555060008060186101000a81548167ffffffffffffffff021916908367ffffffffffffffff16021790555050506200015e565b600080fd5b60006bffffffffffffffffffffffff82169050919050565b620000f181620000ce565b8114620000fd57600080fd5b50565b6000815190506200011181620000e6565b92915050565b60008060408385031215620001315762000130620000c9565b5b6000620001418582860162000100565b9250506020620001548582860162000100565b9150509250929050565b611602806200016e6000396000f3fe608060405234801561001057600080fd5b50600436106100ff5760003560e01c8063a21a23e411610097578063df57899411610066578063df5789941461028e578063e82ad7d4146102ac578063ea277eca146102dc578063fc2a88c31461030c576100ff565b8063a21a23e414610205578063a47c769614610223578063afc69b5314610256578063d7ae1d3014610272576100ff565b80635fbbc0d2116100d35780635fbbc0d21461018c5780637341c10c146101b157806382359740146101cd5780639f87fad7146101e9576100ff565b80620122911461010457806304c357cb1461012457806310d5a892146101405780635d3b1d301461015c575b600080fd5b61010c61032a565b60405161011b93929190610ae0565b60405180910390f35b61013e60048036038101906101399190610bd0565b61038a565b005b61015a60048036038101906101559190610d9f565b61038e565b005b61017660048036038101906101719190610e92565b61048c565b6040516101839190610f1c565b60405180910390f35b61019461060b565b6040516101a8989796959493929190610f55565b60405180910390f35b6101cb60048036038101906101c69190610bd0565b61063d565b005b6101e760048036038101906101e29190610fd3565b610641565b005b61020360048036038101906101fe9190610bd0565b610644565b005b61020d610648565b60405161021a919061100f565b60405180910390f35b61023d60048036038101906102389190610fd3565b6107cb565b60405161024d949392919061111e565b60405180910390f35b610270600480360381019061026b9190611196565b610902565b005b61028c60048036038101906102879190610bd0565b610985565b005b610296610989565b6040516102a391906111d6565b60405180910390f35b6102c660048036038101906102c19190610fd3565b6109af565b6040516102d3919061120c565b60405180910390f35b6102f660048036038101906102f19190611227565b6109b6565b604051610303919061120c565b60405180910390f35b6103146109d6565b6040516103219190610f1c565b60405180910390f35b60008060606003620186a0600067ffffffffffffffff8111156103505761034f610c5c565b5b60405190808252806020026020018201604052801561037e5781602001602082028036833780820191505090505b50925092509250909192565b5050565b6002600084815260200190815260200160002060009054906101000a900460ff166103ee576040517f08c379a00000000000000000000000000000000000000000000000000000000081526004016103e5906112b1565b60405180910390fd5b60006002600085815260200190815260200160002060006101000a81548160ff0219169083151502179055508173ffffffffffffffffffffffffffffffffffffffff16631fe543e384836040518363ffffffff1660e01b815260040161045592919061138f565b600060405180830381600087803b15801561046f57600080fd5b505af1158015610483573d6000803e3d6000fd5b50505050505050565b60008060009054906101000a90046bffffffffffffffffffffffff166bffffffffffffffffffffffff16600160008767ffffffffffffffff1667ffffffffffffffff16815260200190815260200160002060000160149054906101000a90046bffffffffffffffffffffffff166bffffffffffffffffffffffff161015610548576040517f08c379a000000000000000000000000000000000000000000000000000000000815260040161053f90611431565b60405180910390fd5b4233600060189054906101000a900467ffffffffffffffff16604051602001610573939291906114f0565b6040516020818303038152906040528051906020012060001c90508060038190555033600460006101000a81548173ffffffffffffffffffffffffffffffffffffffff021916908373ffffffffffffffffffffffffffffffffffffffff16021790555060016002600083815260200190815260200160002060006101000a81548160ff02191690831515021790555095945050505050565b600080600080600080600080600080600080600080600080975097509750975097509750975097509091929394959697565b5050565b50565b5050565b600080601881819054906101000a900467ffffffffffffffff168092919061066f9061155c565b91906101000a81548167ffffffffffffffff021916908367ffffffffffffffff16021790555050600060189054906101000a900467ffffffffffffffff16905060405180604001604052803373ffffffffffffffffffffffffffffffffffffffff16815260200160006bffffffffffffffffffffffff16815250600160008367ffffffffffffffff1667ffffffffffffffff16815260200190815260200160002060008201518160000160006101000a81548173ffffffffffffffffffffffffffffffffffffffff021916908373ffffffffffffffffffffffffffffffffffffffff16021790555060208201518160000160146101000a8154816bffffffffffffffffffffffff02191690836bffffffffffffffffffffffff1602179055509050507f589597baf2ab6b17bd19e91d8731821ee0d411638aa2cfe6c696227301f0fa86816040516107c0919061100f565b60405180910390a190565b600080600060606000600160008767ffffffffffffffff1667ffffffffffffffff1681526020019081526020016000206040518060400160405290816000820160009054906101000a900473ffffffffffffffffffffffffffffffffffffffff1673ffffffffffffffffffffffffffffffffffffffff1673ffffffffffffffffffffffffffffffffffffffff1681526020016000820160149054906101000a90046bffffffffffffffffffffffff166bffffffffffffffffffffffff166bffffffffffffffffffffffff16815250509050806020015160008260000151600067ffffffffffffffff8111156108c3576108c2610c5c565b5b6040519080825280602002602001820160405280156108f15781602001602082028036833780820191505090505b509450945094509450509193509193565b80600160008467ffffffffffffffff1667ffffffffffffffff16815260200190815260200160002060000160148282829054906101000a90046bffffffffffffffffffffffff16610953919061158c565b92506101000a8154816bffffffffffffffffffffffff02191690836bffffffffffffffffffffffff1602179055505050565b5050565b600460009054906101000a900473ffffffffffffffffffffffffffffffffffffffff1681565b6000919050565b60026020528060005260406000206000915054906101000a900460ff1681565b60035481565b600061ffff82169050919050565b6109f3816109dc565b82525050565b600063ffffffff82169050919050565b610a12816109f9565b82525050565b600081519050919050565b600082825260208201905092915050565b6000819050602082019050919050565b6000819050919050565b610a5781610a44565b82525050565b6000610a698383610a4e565b60208301905092915050565b6000602082019050919050565b6000610a8d82610a18565b610a978185610a23565b9350610aa283610a34565b8060005b83811015610ad3578151610aba8882610a5d565b9750610ac583610a75565b925050600181019050610aa6565b5085935050505092915050565b6000606082019050610af560008301866109ea565b610b026020830185610a09565b8181036040830152610b148184610a82565b9050949350505050565b6000604051905090565b600080fd5b600080fd5b600067ffffffffffffffff82169050919050565b610b4f81610b32565b8114610b5a57600080fd5b50565b600081359050610b6c81610b46565b92915050565b600073ffffffffffffffffffffffffffffffffffffffff82169050919050565b6000610b9d82610b72565b9050919050565b610bad81610b92565b8114610bb857600080fd5b50565b600081359050610bca81610ba4565b92915050565b60008060408385031215610be757610be6610b28565b5b6000610bf585828601610b5d565b9250506020610c0685828601610bbb565b9150509250929050565b6000819050919050565b610c2381610c10565b8114610c2e57600080fd5b50565b600081359050610c4081610c1a565b92915050565b600080fd5b6000601f19601f8301169050919050565b7f4e487b7100000000000000000000000000000000000000000000000000000000600052604160045260246000fd5b610c9482610c4b565b810181811067ffffffffffffffff82111715610cb357610cb2610c5c565b5b80604052505050565b6000610cc6610b1e565b9050610cd28282610c8b565b919050565b600067ffffffffffffffff821115610cf257610cf1610c5c565b5b602082029050602081019050919050565b600080fd5b6000610d1b610d1684610cd7565b610cbc565b90508083825260208201905060208402830185811115610d3e57610d3d610d03565b5b835b81811015610d675780610d538882610c31565b845260208401935050602081019050610d40565b5050509392505050565b600082601f830112610d8657610d85610c46565b5b8135610d96848260208601610d08565b91505092915050565b600080600060608486031215610db857610db7610b28565b5b6000610dc686828701610c31565b9350506020610dd786828701610bbb565b925050604084013567ffffffffffffffff811115610df857610df7610b2d565b5b610e0486828701610d71565b9150509250925092565b610e1781610a44565b8114610e2257600080fd5b50565b600081359050610e3481610e0e565b92915050565b610e43816109dc565b8114610e4e57600080fd5b50565b600081359050610e6081610e3a565b92915050565b610e6f816109f9565b8114610e7a57600080fd5b50565b600081359050610e8c81610e66565b92915050565b600080600080600060a08688031215610eae57610ead610b28565b5b6000610ebc88828901610e25565b9550506020610ecd88828901610b5d565b9450506040610ede88828901610e51565b9350506060610eef88828901610e7d565b9250506080610f0088828901610e7d565b9150509295509295909350565b610f1681610c10565b82525050565b6000602082019050610f316000830184610f0d565b92915050565b600062ffffff82169050919050565b610f4f81610f37565b82525050565b600061010082019050610f6b600083018b610a09565b610f78602083018a610a09565b610f856040830189610a09565b610f926060830188610a09565b610f9f6080830187610f46565b610fac60a0830186610f46565b610fb960c0830185610f46565b610fc660e0830184610f46565b9998505050505050505050565b600060208284031215610fe957610fe8610b28565b5b6000610ff784828501610b5d565b91505092915050565b61100981610b32565b82525050565b60006020820190506110246000830184611000565b92915050565b60006bffffffffffffffffffffffff82169050919050565b61104b8161102a565b82525050565b61105a81610b92565b82525050565b600081519050919050565b600082825260208201905092915050565b6000819050602082019050919050565b61109581610b92565b82525050565b60006110a7838361108c565b60208301905092915050565b6000602082019050919050565b60006110cb82611060565b6110d5818561106b565b93506110e08361107c565b8060005b838110156111115781516110f8888261109b565b9750611103836110b3565b9250506001810190506110e4565b5085935050505092915050565b60006080820190506111336000830187611042565b6111406020830186611000565b61114d6040830185611051565b818103606083015261115f81846110c0565b905095945050505050565b6111738161102a565b811461117e57600080fd5b50565b6000813590506111908161116a565b92915050565b600080604083850312156111ad576111ac610b28565b5b60006111bb85828601610b5d565b92505060206111cc85828601611181565b9150509250929050565b60006020820190506111eb6000830184611051565b92915050565b60008115159050919050565b611206816111f1565b82525050565b600060208201905061122160008301846111fd565b92915050565b60006020828403121561123d5761123c610b28565b5b600061124b84828501610c31565b91505092915050565b600082825260208201905092915050565b7f72657175657374206e6f7420666f756e64000000000000000000000000000000600082015250565b600061129b601183611254565b91506112a682611265565b602082019050919050565b600060208201905081810360008301526112ca8161128e565b9050919050565b600081519050919050565b600082825260208201905092915050565b6000819050602082019050919050565b61130681610c10565b82525050565b600061131883836112fd565b60208301905092915050565b6000602082019050919050565b600061133c826112d1565b61134681856112dc565b9350611351836112ed565b8060005b83811015611382578151611369888261130c565b975061137483611324565b925050600181019050611355565b5085935050505092915050565b60006040820190506113a46000830185610f0d565b81810360208301526113b68184611331565b90509392505050565b7f537562736372697074696f6e2068617320696e73756666696369656e7420667560008201527f6e64730000000000000000000000000000000000000000000000000000000000602082015250565b600061141b602383611254565b9150611426826113bf565b604082019050919050565b6000602082019050818103600083015261144a8161140e565b9050919050565b6000819050919050565b61146c61146782610c10565b611451565b82525050565b60008160601b9050919050565b600061148a82611472565b9050919050565b600061149c8261147f565b9050919050565b6114b46114af82610b92565b611491565b82525050565b60008160c01b9050919050565b60006114d2826114ba565b9050919050565b6114ea6114e582610b32565b6114c7565b82525050565b60006114fc828661145b565b60208201915061150c82856114a3565b60148201915061151c82846114d9565b600882019150819050949350505050565b7f4e487b7100000000000000000000000000000000000000000000000000000000600052601160045260246000fd5b600061156782610b32565b915067ffffffffffffffff82036115815761158061152d565b5b600182019050919050565b60006115978261102a565b91506115a28361102a565b925082820190506bffffffffffffffffffffffff8111156115c6576115c561152d565b5b9291505056fea2646970667358221220509e24acf7eaa2a2f2d45e7370a9a604afa073cf805b5819668b0bd118f6606b64736f6c63430008140033",
  "linkReferences": {},
  "deployedLinkReferences": {}
}